:100000000C9460000C9488000C9488000C94880078
:100010000C9488000C9488000C9488000C94880040
:100020000C9488000C9488000C9488000C94B504FF
:100030000C9488000C9488000C9488000C94880020
:100040000C94BE070C9488000C9416060C94480679
:100050000C9488000C9488000C9488000C94880000
:100060000C9475020C948800000000080002010046
:100070000003040700000000000000000102040863
:100080001020408001020408102001020408102002
:10009000040404040404040402020202020203032E
:1000A0000303030300000000250028002B000000CC
:1000B0000000240027002A00F20199047806F601C6
:1000C00011241FBECFEFD8E0DEBFCDBF11E0A0E00E
:1000D000B1E0E0EBF8E102C005900D92A635B10762
:1000E000D9F722E0A6E5B1E001C01D92AE3DB2070E
:1000F000E1F710E0CFE5D0E004C02197FE010E94B7
:10010000070ACC35D107C9F70E94A6060C944B0C00
:100110000C940000CF93DF93C5E6D0E061E08091BE
:100120000C010E94310984EF91E00E94690860E0AF
:1001300080910C010E94310984EF91E00E946908CE
:10014000219761F7DF91CF9108950F931F93CF937C
:10015000DF9365E070E08FED91E00E948D046AEF1F
:1001600071E08FED91E00E948F046BE072E08FED03
:1001700091E00E949404CCE0D1E061E088810E948B
:10018000F5080AE011E061E0F80180810E94F508BD
:1001900061E0F80180810E94310960E088810E945D
:1001A000310926E040E052EC61E070E084E392E047
:1001B0000E94B10568EE73E080E090E0DF91CF919E
:1001C0001F910F910C942D0880916301909164010F
:1001D000853F21E092071CF021E0209358012091F7
:1001E0005801211103C082E090E032C0853F914068
:1001F0009CF168EC70E080E090E00E942D08809116
:10020000610190916201833C9140A4F060E0809193
:100210000A010E9431098AE790E090935701809388
:10022000560180915B0190915C01019690935C0175
:1002300080935B018091610190916201823C9140C9
:100240005CF461E080910A010E9431098AE790E044
:10025000909357018093560180915B0190915C01CE
:1002600090935A0180935901089580916301909170
:100270006401853F21E092071CF021E020935801A2
:1002800020915801211103C082E090E02CC0853FED
:1002900091406CF18091610190916201823C9140AA
:1002A000A4F460E080910A010E9431098AE790E09D
:1002B000909357018093560180915D0190915E016A
:1002C000019690935E0180935D0180916101909110
:1002D0006201833C91405CF061E080910A010E94E0
:1002E00031098AE790E090935701809356018091FD
:1002F0005D0190915E0190935A0180935901089598
:100300000F931F93CF93DF93809108010E94AF0852
:10031000EC01809106010E94AF088C010E948A00C6
:1003200060EE7BEA80E090E00E942D0880915F0102
:1003300090916001892B61F461E0809110010E942D
:10034000310960E080910E010E9431090E94E400B1
:1003500080915F0190916001019761F461E080916B
:100360000E010E94310960E0809110010E94310964
:100370000E9435014AE050E0B80184E392E00E9417
:10038000A00765E171E084E392E00E94F5064AE08F
:1003900050E0BE0184E392E00E94A00768E171E0B2
:1003A00084E392E00E94F50660915F017091600124
:1003B0004AE050E084E392E00E94A0076BE171E024
:1003C00084E392E00E94F5066091590170915A0110
:1003D0004AE050E084E392E0DF91CF911F910F91CA
:1003E0000C94A70785E691E00C949E0485E691E0C5
:1003F0000C94B3048FED91E00E94A5031816190622
:100400004CF48FED91E00E94AD03909360018093D6
:100410005F01F0CF0895609159018FED91E00C9448
:1004200031041092DE0181E08093DC011092DB0147
:1004300061E082E10E94310961E083E10E943109BB
:10044000E9EBF0E080818E7F808380818D7F8083E7
:1004500088E48093B80085E48093BC000895880FF9
:100460008093BA00089540919301262F30E0240F25
:10047000311D21323105DCF42091DE012430C9F434
:10048000FC0180E090E0861758F4309193012191AF
:10049000DC01AB56BE4FA30FB11D2C930196F3CFD9
:1004A00080919301680F6093930180E0089581E04B
:1004B000089582E008959093D8018093D70108951C
:1004C0009093DA018093D901089585ED8093BC0063
:1004D0008091BC0084FDFCCF1092DE01089585EC74
:1004E0008093BC001092DE0108951F920F920FB608
:1004F0000F9211242F933F934F935F936F937F93AA
:100500008F939F93AF93BF93EF93FF938091B90025
:10051000887F803609F49EC078F5883209F45DC082
:1005200090F4803109F456C038F4882309F4F5C0FA
:10053000883009F44FC0F5C0883109F44EC08032CC
:1005400009F45FC0EEC0803409F46AC058F4803307
:1005500009F457C0883309F0E4C0809371010E9408
:100560006F02DFC0803509F44FC0883509F45DC0E3
:10057000883409F0D6C0D3C0883909F4C4C0A8F4BF
:10058000883709F467C038F4883609F463C08037C7
:1005900009F460C0C6C0883809F4B5C0803909F4D0
:1005A0005FC0803809F0BDC05BC0803B09F483C0E8
:1005B00038F4803A09F466C0883A09F47CC0B1C0C6
:1005C000803C09F4A4C0883C09F4A1C0883B09F42C
:1005D00087C0A7C08091DD0110C09091B6018091C5
:1005E000B501981770F5E091B60181E08E0F809308
:1005F000B601F0E0E954FE4F80818093BB0085ECAA
:1006000083C0809371018BC0E091B60181E08E0FB1
:100610008093B6018091BB00F0E0E954FE4F8083E7
:100620009091B6018091B5016BC0E091B60181E077
:100630008E0F8093B6018091BB00F0E0E954FE4F2D
:1006400080838091DC0181116AC081E08093DB01AD
:1006500084EA5EC083E08093DE0110927201CFCF06
:1006600080917201803208F04EC0E091720181E009
:100670008E0F809372018091BB00F0E0ED58FE4F29
:100680008083BDCF0E946F0280917201803230F46E
:10069000E0917201F0E0ED58FE4F1082609172011E
:1006A00070E0E091D701F091D80183E791E00995DE
:1006B0001092720136C084E08093DE0110929401A2
:1006C00010929301E091D901F091DA01099580919E
:1006D0009301811105C081E08093930110929501EF
:1006E000E091940181E08E0F80939401F0E0EB564D
:1006F000FE4F80818093BB00909194018091930183
:10070000981708F47CCF85E88093BC000AC085EC7C
:100710008093BC001092DE0104C0109271010E940F
:100720006502FF91EF91BF91AF919F918F917F9162
:100730006F915F914F913F912F910F900FBE0F904E
:100740001F90189580E090E008958091120290E04B
:1007500020911302821B91090895909113028091B8
:100760001202981750F4E92FF0E0EC5EFD4F208163
:1007700030E09F5F9093130202C02FEF3FEFC9015B
:100780000895E091130280911202E81730F4F0E02E
:10079000EC5EFD4F808190E008958FEF9FEF08950C
:1007A0000895AC01E091EB01F091EC013097E1F09C
:1007B00090911302809112029817B0F090E0292FC7
:1007C00030E02617370754F4DA01A20FB31F8C91DB
:1007D000D901AC5EBD4F8C939F5FF1CF1092130295
:1007E00060931202CB0109940895E091ED01F0911C
:1007F000EE01309729F01092F1011092F001099466
:100800000895CF92DF92EF92FF920F931F93CF93B1
:10081000DF937C01262F972F8A018091EF01882397
:1008200091F0C62FD72F6E01C40ED51ECC15DD0555
:1008300071F06991D701ED91FC910190F081E02D6B
:10084000C7010995F3CF642F822F0E943302C8019C
:10085000DF91CF911F910F91FF90EF90DF90CF909C
:100860000895CF93DF931F92CDB7DEB769832091B0
:10087000EF012223D1F02091F001203240F021E05D
:1008800030E0FC013383228380E090E015C080914A
:10089000F101E82FF0E0EE50FE4F998190838F5FD9
:1008A0008093F1018093F00105C061E0CE010196D3
:1008B0000E94330281E090E00F90DF91CF91089584
:1008C000FC011382128288EE93E0A0E0B0E0848302
:1008D0009583A683B78382E291E091838083089514
:1008E00010921302109212021092F1011092F00174
:1008F0000C941102CF93DF93EC01862F0E942F02FC
:1009000085EF93E00E94600281ED93E00E945B021C
:10091000CE01DF91CF910C9470040C947A04709303
:10092000EC016093EB0108957093EE016093ED018B
:1009300008958FED91E00C9460040895CF93DF93B8
:10094000EC0168E471E00E94CF0981E090E09F83B0
:100950008E83198618861B861A868FB780688FBF8C
:10096000DF91CF9108950C9461091F920F920FB6F9
:100970000F9211242F933F934F935F936F937F9325
:100980008F939F93AF93BF93EF93FF93E0911201E7
:10099000F09113010995FF91EF91BF91AF919F9154
:1009A0008F917F916F915F914F913F912F910F9018
:1009B0000FBE0F901F901895FC01918D228D892FED
:1009C00090E0805C9F4F821B91098F739927089557
:1009D000FC01918D828D981731F0828DE80FF11D09
:1009E000858D90E008958FEF9FEF0895FC01918D24
:1009F000828D981761F0828DDF01A80FB11D5D9681
:100A00008C91928D9F5F9F73928F90E008958FEFEE
:100A10009FEF0895FC01538D448D252F30E0842FE6
:100A200090E0821B930B541710F0CF960895019716
:100A300008958EE696E0892B49F080E090E0892BBE
:100A400029F00E946E0681110C9400000895FC01AB
:100A5000848DDF01A80FB11DA35ABF4F2C91848D47
:100A600090E001968F739927848FA689B7892C937C
:100A7000A089B1898C9180648C93938D848D981317
:100A800006C00288F389E02D80818F7D80830895E0
:100A9000CF93DF93EC01888D8823C9F0EA89FB8925
:100AA000808185FD05C0A889B9898C9186FD0FC01C
:100AB0000FB607FCF5CF808185FFF2CFA889B989F1
:100AC0008C9185FFEDCFCE010E942705E7CFDF9106
:100AD000CF910895EF92FF920F931F93CF93DF93DF
:100AE000EC0181E0888F9B8D8C8D981305C0E8897F
:100AF000F989808185FD24C0F62E0B8D10E00F5FF3
:100B00001F4F0F731127E02E8C8DE8120CC00FB60B
:100B100007FCFACFE889F989808185FFF5CFCE01FE
:100B20000E942705F1CF8B8DFE01E80FF11DE35ADE
:100B3000FF4FF0820B8FEA89FB898081806207C0BA
:100B4000EE89FF896083E889F989808180648083E8
:100B500081E090E0DF91CF911F910F91FF90EF9096
:100B60000895CF92DF92EF92FF921F93CF93DF937E
:100B7000EC016A017B01122FE889F98982E0808308
:100B80004115514E61057105B1F060E079E08DE3EA
:100B900090E0A70196010E94E509DA01C9010197D9
:100BA000A109B109B695A79597958795AC0141150F
:100BB00080E15807A8F0E889F989108260E874E8B4
:100BC0008EE190E0A70196010E94E509BA01A90112
:100BD0004150510961097109769567955795479577
:100BE000EC85FD855083EE85FF854083188EEC896A
:100BF000FD891083EA89FB89808180618083EA898D
:100C0000FB89808188608083EA89FB898081806894
:100C10008083EA89FB8980818F7D8083DF91CF91FA
:100C20001F91FF90EF90DF90CF9008951F920F9249
:100C30000FB60F9211242F938F939F93EF93FF93EF
:100C4000E0914402F09145028081E0914A02F091E6
:100C50004B0282FD12C0908180914D028F5F8F7395
:100C600020914E02821751F0E0914D02F0E0EC5CD1
:100C7000FD4F958F80934D0201C08081FF91EF91D0
:100C80009F918F912F910F900FBE0F901F901895ED
:100C90001F920F920FB60F9211242F933F934F93F1
:100CA0005F936F937F938F939F93AF93BF93EF93D4
:100CB000FF9384E392E00E942705FF91EF91BF919B
:100CC000AF919F918F917F916F915F914F913F91E4
:100CD0002F910F900FBE0F901F90189584E392E014
:100CE0000E94DC0421E0892B09F420E0822F089582
:100CF000E4E3F2E01382128288EE93E0A0E0B0E039
:100D000084839583A683B78388E391E0918380836E
:100D100085EC90E09587848784EC90E097878687C0
:100D200080EC90E0918B808B81EC90E0938B828BB8
:100D300082EC90E0958B848B86EC90E0978B868B91
:100D4000118E128E138E148E089508950E947408C9
:100D50000E94A5060E94A500C9E1D5E00E9480017D
:100D60002097E1F30E941905F9CFCF92DF92EF921D
:100D7000FF920F931F93CF93DF936C017A018B0146
:100D8000C0E0D0E0CE15DF0589F0D8016D918D016E
:100D9000D601ED91FC910190F081E02DC6010995FD
:100DA000892B11F47E0102C02196ECCFC701DF919F
:100DB000CF911F910F91FF90EF90DF90CF9008950A
:100DC0006115710579F0FB0101900020E9F7319779
:100DD000AF01461B570BDC01ED91FC910280F381C2
:100DE000E02D099480E090E008950C94E006DC0189
:100DF000ED91FC910190F081E02D099466E471E0A1
:100E00000C94E0068F929F92AF92BF92CF92DF92A6
:100E1000EF92FF920F931F93CF93DF93CDB7DEB77F
:100E2000A1970FB6F894DEBF0FBECDBF7C01D42EC4
:100E3000C52EDB0119A2223008F42AE08E010F5DD5
:100E40001F4F822E912CA12CB12C6D2D7C2DCD010C
:100E5000A50194010E94E509D22EC32EDA010150AA
:100E600011096A3071058105910510F4605D01C0BA
:100E7000695CF8016083232B242B252B31F7B80103
:100E8000C7010E94E006A1960FB6F894DEBF0FBE20
:100E9000CDBFDF91CF911F910F91FF90EF90DF9029
:100EA000CF90BF90AF909F908F900895CF92DF9298
:100EB000EF92FF920F931F93CF93DF93EC016A01A0
:100EC0007B012115310579F4E881F9810190F081E8
:100ED000E02D642FDF91CF911F910F91FF90EF9044
:100EE000DF90CF9009942A303105E9F477FF1AC0DA
:100EF0006DE20E94F7068C0144275527BA014C1970
:100F00005D096E097F092AE0CE010E940207800F69
:100F1000911FDF91CF911F910F91FF90EF90DF9084
:100F2000CF9008952AE0B701A601CE01DF91CF91BD
:100F30001F910F91FF90EF90DF90CF900C940207DC
:100F40009A01AB01770F660B770B0C9456070F9342
:100F50001F93CF93DF93EC019A01AB01770F660BE0
:100F6000770B0E9456078C01CE010E94FE06800F6F
:100F7000911FDF91CF911F910F9108951F920F92B2
:100F80000FB60F9211242F933F938F939F93AF939C
:100F9000BF938091D2029091D302A091D402B091DC
:100FA000D5023091D10223E0230F2D3720F4019692
:100FB000A11DB11D05C026E8230F0296A11DB11D7C
:100FC0002093D1028093D2029093D302A093D402B3
:100FD000B093D5028091D6029091D702A091D80209
:100FE000B091D9020196A11DB11D8093D6029093B4
:100FF000D702A093D802B093D902BF91AF919F912D
:101000008F913F912F910F900FBE0F901F901895C9
:101010003FB7F8948091D6029091D702A091D80260
:10102000B091D90226B5A89B05C02F3F19F00196B3
:10103000A11DB11D3FBFBA2FA92F982F8827820F5E
:10104000911DA11DB11DBC01CD0142E0660F771FAE
:10105000881F991F4A95D1F708958F929F92AF925A
:10106000BF92CF92DF92EF92FF926B017C010E94C0
:1010700008084B015C01C114D104E104F10401F141
:101080000E94E4090E940808DC01CB018819990933
:10109000AA09BB09883E9340A105B10560F321E090
:1010A000C21AD108E108F10888EE880E83E0981E84
:1010B000A11CB11CC114D104E104F10419F7DBCF68
:1010C000FF90EF90DF90CF90BF90AF909F908F9068
:1010D00008958230910538F0880F991F880F991F65
:1010E00005970197F1F70895789484B5826084BDDF
:1010F00084B5816084BD85B5826085BD85B581601C
:1011000085BDEEE6F0E0808181608083E1E8F0E07B
:101110001082808182608083808181608083E0E8AA
:10112000F0E0808181608083E1EBF0E08081846089
:101130008083E0EBF0E0808181608083EAE7F0E08B
:1011400080818460808380818260808380818160EF
:1011500080838081806880831092C10008958E30E2
:1011600008F08E5087702091140190E4299F90011F
:101170001124822B80937C0080917A00806480937C
:101180007A0080917A0086FDFCCF809178002091D2
:10119000790090E0922B0895833081F028F481301B
:1011A00099F08230A1F008958730A9F08830B9F025
:1011B0008430D1F4809180008F7D03C080918000C5
:1011C0008F7780938000089584B58F7702C084B5AF
:1011D0008F7D84BD08958091B0008F7703C080918A
:1011E000B0008F7D8093B0000895CF93DF9390E09F
:1011F000FC01E458FF4F2491FC01E057FF4F84911C
:10120000882361F190E0880F991FFC01E255FF4FA0
:10121000C591D491FC01EC55FF4FA591B49161119A
:1012200009C09FB7F8948881209582238883EC9128
:101230002E230BC0623061F49FB7F8943881822F5F
:10124000809583238883EC912E2B2C939FBF06C01F
:101250008FB7F894E8812E2B28838FBFDF91CF9131
:1012600008951F93CF93DF93282F30E0F901E859B9
:10127000FF4F8491F901E458FF4FD491F901E057F1
:10128000FF4FC491CC23C9F0162F81110E94CC08C6
:10129000EC2FF0E0EE0FFF1FEC55FF4FA591B4913E
:1012A0008FB7F894111105C09C91ED2FE095E923BB
:1012B00002C0EC91ED2BEC938FBFDF91CF911F918A
:1012C0000895FC01808191810C94A20ACF93DF9351
:1012D000EC0188819981009711F00E94A20A19827D
:1012E00018821D821C821B821A82DF91CF91089581
:1012F0000F931F93CF93DF93EC018B016F5F7F4FB1
:10130000888199810E943A0B009731F099838883F4
:101310001B830A8381E001C080E0DF91CF911F91A0
:101320000F910895CF93DF93EC0188819981892BE8
:1013300029F08A819B818617970760F4CE010E946D
:101340007809882341F08C819D81892B19F4E881EB
:10135000F981108281E0DF91CF910895EF92FF92A1
:101360000F931F93CF93DF93EC017B018A01BA01A6
:101370000E949209811104C0CE010E94660907C033
:101380001D830C83B701888199810E940D0CCE01C9
:10139000DF91CF911F910F91FF90EF900895FC0185
:1013A00011821082138212821582148261157105D6
:1013B00051F0FB0101900020E9F73197AF01461B86
:1013C000570B0C94AE0908950895A1E21A2EAA1B9A
:1013D000BB1BFD010DC0AA1FBB1FEE1FFF1FA217E5
:1013E000B307E407F50720F0A21BB30BE40BF50BE2
:1013F000661F771F881F991F1A9469F7609570956B
:10140000809590959B01AC01BD01CF010895EE0F31
:10141000FF1F0590F491E02D0994CF93DF93823064
:10142000910510F482E090E0E091DC02F091DD02A1
:1014300020E030E0C0E0D0E0309711F140815181F0
:1014400048175907C0F04817590761F48281938102
:10145000209719F09B838A832BC09093DD028093A1
:10146000DC0226C02115310519F04217530718F484
:101470009A01BE01DF01EF010280F381E02DDCCF94
:101480002115310509F1281B390B2430310590F461
:1014900012968D919C9113976115710521F0FB01B6
:1014A0009383828304C09093DD028093DC02FD016C
:1014B000329644C0FD01E20FF31F819391932250B5
:1014C00031092D933C933AC02091DA023091DB022E
:1014D000232B41F420910201309103013093DB0270
:1014E0002093DA022091000130910101211531058C
:1014F00041F42DB73EB74091040150910501241BE2
:10150000350BE091DA02F091DB02E217F307A0F469
:101510002E1B3F0B2817390778F0AC014E5F5F4F49
:101520002417350748F04E0F5F1F5093DB0240939E
:10153000DA028193919302C0E0E0F0E0CF01DF9105
:10154000CF9108950F931F93CF93DF93009709F4E2
:101550008CC0FC013297138212820091DC02109140
:10156000DD020115110581F420813181820F931F65
:101570002091DA023091DB022817390779F5F093D0
:10158000DB02E093DA0271C0D80140E050E0AE1710
:10159000BF0750F412962D913C911397AD01211580
:1015A000310509F1D901F3CF9D01DA01338322839B
:1015B00060817181860F971F8217930769F4EC0190
:1015C00028813981260F371F2E5F3F4F31832083BB
:1015D0008A819B8193838283452B29F4F093DD02DA
:1015E000E093DC0242C01396FC93EE931297ED0158
:1015F000499159919E01240F351FE217F30771F4A9
:1016000080819181840F951F029611969C938E93F1
:101610008281938113969C938E931297E0E0F0E081
:10162000D80112968D919C911397009719F0F801AB
:101630008C01F6CF8D919C9198012E5F3F4F820FC8
:10164000931F2091DA023091DB022817390769F4E1
:10165000309729F41092DD021092DC0202C013824E
:1016600012821093DB020093DA02DF91CF911F9177
:101670000F910895A0E0B0E0E0E4FBE00C94180CBA
:10168000EC01009721F4CB010E940D0AB8C0FC01C7
:10169000E60FF71F9C0122503109E217F30708F407
:1016A000ACC0D9010D911C91119706171707B0F026
:1016B0000530110508F49FC0C801049786179707E5
:1016C00008F499C002501109061B170B01931193DE
:1016D0006D937C93CF010E94A20A8DC05B01A01A7A
:1016E000B10A4C01800E911EA091DC02B091DD0286
:1016F00040E050E0E12CF12C109709F44AC0A81505
:10170000B905D1F56D907C901197630182E0C80E08
:10171000D11CCA14DB0480F1A3014A195B096A01D8
:1017200082E0C80ED11C1296BC9012971396AC9111
:10173000B5E0CB16D10440F0B282A383518340833D
:10174000D9016D937C930AC00E5F1F4FC301800FB8
:10175000911FF90191838083EB2DFA2FE114F1049D
:1017600031F0D7011396FC93EE93129744C0F09397
:10177000DD02E093DC023FC08D919C9111974817E8
:10178000590708F4AC017D0112960D90BC91A02D73
:10179000B3CF8091DA029091DB0288159905E1F4CC
:1017A00046175707C8F480910001909101010097F6
:1017B00041F48DB79EB74091040150910501841BFF
:1017C000950BE817F907C8F4F093DB02E093DA020F
:1017D000F901718360830FC0CB010E940D0A7C0167
:1017E000009759F0A801BE010E94040CCE010E948E
:1017F000A20AC70104C0CE0102C080E090E0CDB7CC
:10180000DEB7EEE00C94340CFB01DC0102C0019069
:101810000D9241505040D8F70895FB01DC01019032
:101820000D920020E1F708952F923F924F925F9220
:101830006F927F928F929F92AF92BF92CF92DF92E0
:10184000EF92FF920F931F93CF93DF93CDB7DEB745
:10185000CA1BDB0B0FB6F894DEBF0FBECDBF0994D9
:101860002A88398848885F846E847D848C849B8430
:10187000AA84B984C884DF80EE80FD800C811B813E
:10188000AA81B981CE0FD11D0FB6F894DEBF0FBE6D
:10189000CDBFED01089510E0CFE5D0E004C0FE011A
:1018A0000E94070A2196C036D107C9F7F894FFCFE6
:1018B0000000DE0220000F000E0002000300050001
:1018C00004009D0401703A00513A00673A0000009C
:1018D000000031040104A203D003A503AD03C1033A
:1018E00043544300000000006A05B5060A05480598
:1018F000DC04F604E8040D0A006E616E00696E6691
:06190000006F7666000096
:00000001FF
