:100000000C9460000C9488000C9488000C94880078
:100010000C9488000C9488000C9488000C94880040
:100020000C9488000C9488000C9488000C94D005E3
:100030000C9488000C9488000C9488000C94880020
:100040000C94A50A0C9488000C94FD080C942F09BC
:100050000C9488000C9488000C9488000C94880000
:100060000C948D020C94880000000008000201002E
:100070000003040700000000000000000102040863
:100080001020408001020408102001020408102002
:10009000040404040404040402020202020203032E
:1000A0000303030300000000250028002B000000CC
:1000B0000000240027002A000A02B1045F090E0292
:1000C00011241FBECFEFD8E0DEBFCDBF11E0A0E00E
:1000D000B1E0E8E5FFE102C005900D92A036B1075E
:1000E000D9F722E0A0E6B1E001C01D92A83EB20718
:1000F000E1F710E0CFE5D0E004C02197FE010E94B7
:100100004A0DCC35D107C9F70E948D090C949F0F79
:100110000C9400008091600190916101009791F032
:1001200080FD02C061E001C060E080910C010E948E
:100130000D0C809160019091610101979093610194
:100140008093600108950F931F93CF93DF9300D0A6
:1001500000D000D0CDB7DEB765E070E089EE91E069
:100160000E94A50462E172E089EE91E00E94A7047A
:1001700063E272E089EE91E00E94AC0461E080915C
:100180000C010E94D10B0AE011E061E0F8018081CE
:100190000E94D10B61E0F80180810E940D0C26E0E5
:1001A00040E052EC61E070E08EE392E00E9498083B
:1001B00068EE73E080E090E00E94140B6FE171E064
:1001C000CE0101960E94AB0C20E030E040E05FE3FE
:1001D000BE016F5F7F4F8FE691E00E944605CE0122
:1001E00001960E943D0C6AE870E08FE691E00E9463
:1001F000C90526960FB6F894DEBF0FBECDBFDF91BE
:10020000CF911F910F91089580916D0190916E0192
:10021000853F21E092071CF021E0209362012091AC
:100220006201211103C082E090E032C0853F91401D
:100230009CF168EC70E080E090E00E94140B8091EB
:100240006B0190916C01833C9140A4F060E080913F
:100250000A010E940D0C8AE790E09093610180935F
:10026000600180916501909166010196909366010D
:100270008093650180916B0190916C01823C91406B
:100280005CF461E080910A010E940D0C8AE790E025
:100290009093610180936001809165019091660166
:1002A0009093640180936301089580916D01909112
:1002B0006E01853F21E092071CF021E0209362014E
:1002C00020916201211103C082E090E02CC0853FA3
:1002D00091406CF180916B0190916C01823C914056
:1002E000A4F460E080910A010E940D0C8AE790E07E
:1002F0009093610180936001809167019091680102
:100300000196909368018093670180916B019091B1
:100310006C01833C91405CF061E080910A010E9495
:100320000D0C8AE790E090936101809360018091C9
:10033000670190916801909364018093630108952F
:100340000F931F93CF93DF93809108010E948B0B33
:10035000EC01809106010E948B0B8C018091690158
:1003600090916A01892B61F461E0809110010E94F3
:100370000D0C60E080910E010E940D0C0E940401A2
:100380008091690190916A01019761F461E0809127
:100390000E010E940D0C60E0809110010E940D0C76
:1003A0000E9455014AE050E0B8018EE392E00E94BD
:1003B000870A63E271E08EE392E00E94DC094AE082
:1003C00050E0BE018EE392E00E94870A66E271E08F
:1003D0008EE392E00E94DC096091690170916A01EC
:1003E0004AE050E08EE392E00E94870A69E271E001
:1003F0008EE392E00E94DC096091630170916401D8
:100400004AE050E08EE392E0DF91CF911F910F918F
:100410000C948E0A8FE691E00C9431058FE691E002
:100420000C94CE0589EE91E00E94BD0318161906C2
:100430004CF489EE91E00E94C50390936A01809389
:100440006901F0CF08956091630189EE91E00C9409
:1004500049041092E80181E08093E6011092E501E1
:1004600061E082E10E940D0C61E083E10E940D0CCD
:10047000E9EBF0E080818E7F808380818D7F8083B7
:1004800088E48093B80085E48093BC000895880FC9
:100490008093BA00089540919D01262F30E0240FEB
:1004A000311D21323105DCF42091E8012430C9F4FA
:1004B000FC0180E090E0861758F430919D01219175
:1004C000DC01A156BE4FA30FB11D2C930196F3CFB3
:1004D00080919D01680F60939D0180E0089581E007
:1004E000089582E008959093E2018093E1010895D8
:1004F0009093E4018093E301089585ED8093BC001F
:100500008091BC0084FDFCCF1092E801089585EC39
:100510008093BC001092E80108951F920F920FB6CD
:100520000F9211242F933F934F935F936F937F9379
:100530008F939F93AF93BF93EF93FF938091B900F5
:10054000887F803609F49EC078F5883209F45DC052
:1005500090F4803109F456C038F4882309F4F5C0CA
:10056000883009F44FC0F5C0883109F44EC080329C
:1005700009F45FC0EEC0803409F46AC058F48033D7
:1005800009F457C0883309F0E4C080937B010E94CE
:100590008702DFC0803509F44FC0883509F45DC09B
:1005A000883409F0D6C0D3C0883909F4C4C0A8F48F
:1005B000883709F467C038F4883609F463C0803797
:1005C00009F460C0C6C0883809F4B5C0803909F4A0
:1005D0005FC0803809F0BDC05BC0803B09F483C0B8
:1005E00038F4803A09F466C0883A09F47CC0B1C096
:1005F000803C09F4A4C0883C09F4A1C0883B09F4FC
:1006000087C0A7C08091E70110C09091C001809180
:10061000BF01981770F5E091C00181E08E0F8093C3
:10062000C001F0E0EF53FE4F80818093BB0085EC6A
:1006300083C080937B018BC0E091C00181E08E0F6D
:100640008093C0018091BB00F0E0EF53FE4F8083A8
:100650009091C0018091BF016BC0E091C00181E029
:100660008E0F8093C0018091BB00F0E0EF53FE4FEE
:1006700080838091E60181116AC081E08093E50169
:1006800084EA5EC083E08093E80110927C01CFCFC2
:1006900080917C01803208F04EC0E0917C0181E0C5
:1006A0008E0F80937C018091BB00F0E0E358FE4FF9
:1006B0008083BDCF0E94870280917C01803230F41C
:1006C000E0917C01F0E0E358FE4F108260917C01E4
:1006D00070E0E091E101F091E2018DE791E0099590
:1006E00010927C0136C084E08093E80110929E0154
:1006F00010929D01E091E301F091E4010995809150
:100700009D01811105C081E080939D0110929F01A0
:10071000E0919E0181E08E0F80939E01F0E0E15612
:10072000FE4F80818093BB0090919E0180919D013E
:10073000981708F47CCF85E88093BC000AC085EC4C
:100740008093BC001092E80104C010927B010E94CB
:100750007D02FF91EF91BF91AF919F918F917F911A
:100760006F915F914F913F912F910F900FBE0F901E
:100770001F90189580E090E0089580911C0290E011
:1007800020911D02821B9109089590911D02809174
:100790001C02981750F4E92FF0E0E25EFD4F208133
:1007A00030E09F5F90931D0202C02FEF3FEFC90121
:1007B0000895E0911D0280911C02E81730F4F0E0EA
:1007C000E25EFD4F808190E008958FEF9FEF0895E6
:1007D0000895AC01E091F501F091F6013097E1F058
:1007E00090911D0280911C029817B0F090E0292F83
:1007F00030E02617370754F4DA01A20FB31F8C91AB
:10080000D901A25EBD4F8C939F5FF1CF10921D0264
:1008100060931C02CB0109940895E091F701F091D7
:10082000F801309729F01092FB011092FA01099417
:100830000895CF92DF92EF92FF920F931F93CF9381
:10084000DF937C01262F972F8A018091F90188235D
:1008500091F0C62FD72F6E01C40ED51ECC15DD0525
:1008600071F06991D701ED91FC910190F081E02D3B
:10087000C7010995F3CF642F822F0E944B02C80154
:10088000DF91CF911F910F91FF90EF90DF90CF906C
:100890000895CF93DF931F92CDB7DEB76983209180
:1008A000F9012223D1F02091FA01203240F021E019
:1008B00030E0FC013383228380E090E015C080911A
:1008C000FB01E82FF0E0E450FE4F998190838F5FA9
:1008D0008093FB018093FA0105C061E0CE0101968F
:1008E0000E944B0281E090E00F90DF91CF9108953C
:1008F000FC011382128288EE93E0A0E0B0E08483D2
:100900009583A683B78380E391E0918380830895E4
:1009100010921D0210921C021092FB011092FA011B
:100920000C942902CF93DF93EC01862F0E9447029B
:100930008DE094E00E94780289EE93E00E947302B9
:10094000CE01DF91CF910C9488040C9492047093A3
:10095000F6016093F50108957093F8016093F70133
:10096000089589EE91E00C94780408952F923F92B7
:100970004F925F926F927F928F929F92AF92BF92AF
:10098000CF92DF92EF92FF920F931F93CF93DF935B
:10099000CDB7DEB72C970FB6F894DEBF0FBECDBF34
:1009A0001C014A015B018AE0E5E1F1E0DE011196FC
:1009B00001900D928A95E1F7CE0101969C878B8775
:1009C00000E010E030E8432E3EE3532E612C712C02
:1009D000EB85FC8561917191FC87EB87CB01770FEB
:1009E000AA0BBB0B77276627A30192010E942B0D50
:1009F00069017A01B901330F880B990B0E94A10696
:100A0000A50194010E942D0718162CF00F5F1F4FAF
:100A100005301105E9F6F101D186C086000F111FDE
:100A2000E1E0F0E0EC0FFD1FE00FF11F808191810C
:100A30002C960FB6F894DEBF0FBECDBFDF91CF91DD
:100A40001F910F91FF90EF90DF90CF90BF90AF90EC
:100A50009F908F907F906F905F904F903F902F90DE
:100A60000895CF93DF93EC0162E571E00E94AB0C37
:100A700081E090E09F838E83198618861B861A86F4
:100A80008FB780688FBFDF91CF910895CF92DF92AB
:100A9000EF92FF920F931F93CF93DF93EC018B01A3
:100AA00069017A010E94C00CB701A601CE010E9423
:100AB000B6049F838E83C8010E94F60C6FE171E03B
:100AC000C8010E94D70C882309F45AC010928000F4
:100AD0001092810088E0809381008E819F81019730
:100AE00029F4809181008160809381008E819F81B3
:100AF000089729F4809181008260809381008E8123
:100B00009F818034910529F48091810083608093D6
:100B100081008E819F818115914029F4809181000F
:100B20008460809381008E819F818115944029F497
:100B30008091810085608093810020E030E04AE769
:100B400056E4C701B6010E9432076B017C018E8119
:100B50009F81BC01990F880B990B0E94A1069B01F4
:100B6000AC01C701B6010E94F7050E9469067B87A8
:100B70006A87709389006093880082E080936F0099
:100B8000DF91CF911F910F91FF90EF90DF90CF9069
:100B90000895709313016093120108950C943D0C15
:100BA0001F920F920FB60F9211242F933F934F93E2
:100BB0005F936F937F938F939F93AF93BF93EF93C5
:100BC000FF93E0911201F09113010995FF91EF91CC
:100BD000BF91AF919F918F917F916F915F914F9155
:100BE0003F912F910F900FBE0F901F9018950E946C
:100BF0000B060C94F3060E94EC0658F00E94E506E2
:100C000040F029F45F3F29F00C94DC0651110C945C
:100C100027070C94E2060E94040768F39923B1F3B6
:100C2000552391F3951B550BBB27AA276217730712
:100C3000840738F09F5F5F4F220F331F441FAA1FA6
:100C4000A9F335D00E2E3AF0E0E832D09150504062
:100C5000E695001CCAF72BD0FE2F29D0660F771F10
:100C6000881FBB1F261737074807AB07B0E809F0F6
:100C7000BB0B802DBF01FF2793585F4F3AF09E3F7B
:100C8000510578F00C94DC060C9427075F3FE4F3E1
:100C9000983ED4F3869577956795B795F7959F5FBE
:100CA000C9F7880F911D9695879597F90895E1E00A
:100CB000660F771F881FBB1F621773078407BA0769
:100CC00020F0621B730B840BBA0BEE1F88F7E095C4
:100CD00008950E9470066894B1110C942707089536
:100CE0000E940C0788F09F5798F0B92F9927B751A9
:100CF000B0F0E1F0660F771F881F991F1AF0BA95C0
:100D0000C9F714C0B13091F00E942607B1E00895F0
:100D10000C942607672F782F8827B85F39F0B93FE2
:100D2000CCF3869577956795B395D9F73EF4909572
:100D30008095709561957F4F8F4F9F4F0895E894F0
:100D400009C097FB3EF490958095709561957F4F13
:100D50008F4F9F4F9923A9F0F92F96E9BB279395C1
:100D6000F695879577956795B795F111F8CFFAF4D1
:100D7000BB0F11F460FF1BC06F5F7F4F8F4F9F4F02
:100D800016C0882311F096E911C0772321F09EE860
:100D9000872F762F05C0662371F096E8862F70E0C6
:100DA00060E02AF09A95660F771F881FDAF7880FA0
:100DB0009695879597F9089597F99F6780E870E071
:100DC00060E008959FEF80EC089500240A941616C1
:100DD000170618060906089500240A941216130629
:100DE000140605060895092E0394000C11F48823B7
:100DF00052F0BB0F40F4BF2B11F460FF04C06F5FD3
:100E00007F4F8F4F9F4F089557FD9058440F551FA8
:100E100059F05F3F71F04795880F97FB991F61F07C
:100E20009F3F79F087950895121613061406551FF3
:100E3000F2CF4695F1DF08C0161617061806991F5F
:100E4000F1CF86957105610508940895E894BB2754
:100E500066277727CB0197F908950E949F0708F42A
:100E60008FEF08950E9445070C94F3060E94E50653
:100E700038F00E94EC0620F0952311F00C94DC066B
:100E80000C94E20611240C9427070E94040770F3C7
:100E9000959FC1F3950F50E0551F629FF001729F1F
:100EA000BB27F00DB11D639FAA27F00DB11DAA1F2E
:100EB000649F6627B00DA11D661F829F2227B00D7B
:100EC000A11D621F739FB00DA11D621F839FA00D06
:100ED000611D221F749F3327A00D611D231F849F56
:100EE000600D211D822F762F6A2F11249F575040AD
:100EF0009AF0F1F088234AF0EE0FFF1FBB1F661F28
:100F0000771F881F91505040A9F79E3F510580F0F0
:100F10000C94DC060C9427075F3FE4F3983ED4F36F
:100F2000869577956795B795F795E7959F5FC1F794
:100F3000FE2B880F911D9695879597F90895990F27
:100F40000008550FAA0BE0E8FEEF16161706E80793
:100F5000F907C0F012161306E407F50798F0621BB4
:100F6000730B840B950B39F40A2661F0232B242B89
:100F7000252B21F408950A2609F4A140A6958FEFA8
:100F8000811D811D0895FC01918D228D892F90E096
:100F9000805C9F4F821B91098F7399270895FC01F4
:100FA000918D828D981731F0828DE80FF11D858D1E
:100FB00090E008958FEF9FEF0895FC01918D828D51
:100FC000981761F0828DDF01A80FB11D5D968C919D
:100FD000928D9F5F9F73928F90E008958FEF9FEFA8
:100FE0000895FC01538D448D252F30E0842F90E02F
:100FF000821B930B541710F0CF9608950197089514
:1010000085E599E0892B49F080E090E0892B29F073
:101010000E94550981110C9400000895FC01848DF3
:10102000DF01A80FB11DA35ABF4F2C91848D90E012
:1010300001968F739927848FA689B7892C93A089ED
:10104000B1898C9180648C93938D848D981306C0A4
:101050000288F389E02D80818F7D80830895CF936E
:10106000DF93EC01888D8823C9F0EA89FB898081B0
:1010700085FD05C0A889B9898C9186FD0FC00FB682
:1010800007FCF5CF808185FFF2CFA889B9898C91C3
:1010900085FFEDCFCE010E940E08E7CFDF91CF9103
:1010A0000895EF92FF920F931F93CF93DF93EC017C
:1010B00081E0888F9B8D8C8D981305C0E889F98914
:1010C000808185FD24C0F62E0B8D10E00F5F1F4F31
:1010D0000F731127E02E8C8DE8120CC00FB607FCA1
:1010E000FACFE889F989808185FFF5CFCE010E948A
:1010F0000E08F1CF8B8DFE01E80FF11DE35AFF4F73
:10110000F0820B8FEA89FB898081806207C0EE89BB
:10111000FF896083E889F98980818064808381E028
:1011200090E0DF91CF911F910F91FF90EF90089584
:10113000CF92DF92EF92FF921F93CF93DF93EC0158
:101140006A017B01122FE889F98982E080834115C9
:10115000514E61057105B1F060E079E08DE390E0FA
:10116000A70196010E94090DDA01C9010197A109A1
:10117000B109B695A79597958795AC01411580E182
:101180005807A8F0E889F989108260E874E88EE1D0
:1011900090E0A70196010E94090DBA01A9014150F2
:1011A0005109610971097695679557954795EC85C1
:1011B000FD855083EE85FF854083188EEC89FD897F
:1011C0001083EA89FB89808180618083EA89FB89B9
:1011D000808188608083EA89FB8980818068808340
:1011E000EA89FB8980818F7D8083DF91CF911F9178
:1011F000FF90EF90DF90CF9008951F920F920FB65F
:101200000F9211242F938F939F93EF93FF93E0916D
:101210004E02F0914F028081E0915402F09155020C
:1012200082FD12C09081809157028F5F8F73209151
:101230005802821751F0E0915702F0E0E25CFD4F56
:10124000958F8093570201C08081FF91EF919F910C
:101250008F912F910F900FBE0F901F9018951F9296
:101260000F920FB60F9211242F933F934F935F93DA
:101270006F937F938F939F93AF93BF93EF93FF935E
:101280008EE392E00E940E08FF91EF91BF91AF9123
:101290009F918F917F916F915F914F913F912F918E
:1012A0000F900FBE0F901F9018958EE392E00E9452
:1012B000C30721E0892B09F420E0822F0895EEE393
:1012C000F2E01382128288EE93E0A0E0B0E0848323
:1012D0009583A683B78382E491E09183808385EC34
:1012E00090E09587848784EC90E09787868780ECF0
:1012F00090E0918B808B81EC90E0938B828B82ECE1
:1013000090E0958B848B86EC90E0978B868B118E8A
:10131000128E138E148E089508950E94500B0E9411
:101320008C090E94A300C0E0D8E00E94A001209791
:10133000E1F30E940008F9CFCF92DF92EF92FF9283
:101340000F931F93CF93DF936C017A018B01C0E061
:10135000D0E0CE15DF0589F0D8016D918D01D60161
:10136000ED91FC910190F081E02DC6010995892B4A
:1013700011F47E0102C02196ECCFC701DF91CF911D
:101380001F910F91FF90EF90DF90CF90089561151E
:10139000710579F0FB0101900020E9F73197AF0169
:1013A000461B570BDC01ED91FC910280F381E02D8F
:1013B000099480E090E008950C94C709DC01ED9158
:1013C000FC910190F081E02D099460E571E00C94AE
:1013D000C7098F929F92AF92BF92CF92DF92EF9206
:1013E000FF920F931F93CF93DF93CDB7DEB7A197F3
:1013F0000FB6F894DEBF0FBECDBF7C01D42EC52E34
:10140000DB0119A2223008F42AE08E010F5D1F4F84
:10141000822E912CA12CB12C6D2D7C2DCD01A501FE
:1014200094010E94090DD22EC32EDA010150110938
:101430006A3071058105910510F4605D01C0695C39
:10144000F8016083232B242B252B31F7B801C7012A
:101450000E94C709A1960FB6F894DEBF0FBECDBF9C
:10146000DF91CF911F910F91FF90EF90DF90CF9080
:10147000BF90AF909F908F900895CF92DF92EF92A0
:10148000FF920F931F93CF93DF93EC016A017B01CF
:101490002115310579F4E881F9810190F081E02D81
:1014A000642FDF91CF911F910F91FF90EF90DF900C
:1014B000CF9009942A303105E9F477FF1AC06DE224
:1014C0000E94DE098C0144275527BA014C195D0999
:1014D0006E097F092AE0CE010E94E909800F911F61
:1014E000DF91CF911F910F91FF90EF90DF90CF9000
:1014F00008952AE0B701A601CE01DF91CF911F9197
:101500000F91FF90EF90DF90CF900C94E9099A0132
:10151000AB01770F660B770B0C943D0A0F931F936B
:10152000CF93DF93EC019A01AB01770F660B770B3A
:101530000E943D0A8C01CE010E94E509800F911F97
:10154000DF91CF911F910F9108951F920F920FB6C7
:101550000F9211242F933F938F939F93AF93BF9339
:101560008091DC029091DD02A091DE02B091DF0259
:101570003091DB0223E0230F2D3720F40196A11DCB
:10158000B11D05C026E8230F0296A11DB11D2093B1
:10159000DB028093DC029093DD02A093DE02B09325
:1015A000DF028091E0029091E102A091E202B0910D
:1015B000E3020196A11DB11D8093E0029093E10228
:1015C000A093E202B093E302BF91AF919F918F91FC
:1015D0003F912F910F900FBE0F901F9018953FB71E
:1015E000F8948091E0029091E102A091E202B09122
:1015F000E30226B5A89B05C02F3F19F00196A11D57
:10160000B11D3FBFBA2FA92F982F8827820F911D98
:10161000A11DB11DBC01CD0142E0660F771F881FDF
:10162000991F4A95D1F708958F929F92AF92BF92DA
:10163000CF92DF92EF92FF926B017C010E94EF0A42
:101640004B015C01C114D104E104F10401F10E94D9
:10165000080D0E94EF0ADC01CB0188199909AA093B
:10166000BB09883E9340A105B10560F321E0C21A91
:10167000D108E108F10888EE880E83E0981EA11CCD
:10168000B11CC114D104E104F10419F7DBCFFF90C0
:10169000EF90DF90CF90BF90AF909F908F90089584
:1016A000789484B5826084BD84B5816084BD85B53D
:1016B000826085BD85B5816085BDEEE6F0E0808104
:1016C00081608083E1E8F0E0108280818260808325
:1016D000808181608083E0E8F0E0808181608083A8
:1016E000E1EBF0E0808184608083E0EBF0E08081DA
:1016F00081608083EAE7F0E080818460808380817C
:101700008260808380818160808380818068808323
:101710001092C10008958E3008F08E50877020918D
:10172000140190E4299F90011124822B80937C0066
:1017300080917A00806480937A0080917A0086FD9F
:10174000FCCF809178002091790090E0922B089551
:10175000833081F028F4813099F08230A1F008952F
:101760008730A9F08830B9F08430D1F480918000BE
:101770008F7D03C0809180008F77809380000895D3
:1017800084B58F7702C084B58F7D84BD0895809124
:10179000B0008F7703C08091B0008F7D8093B00040
:1017A0000895CF93DF9390E0FC01E458FF4F24911C
:1017B000FC01E057FF4F8491882361F190E0880F8E
:1017C000991FFC01E255FF4FC591D491FC01EC55E6
:1017D000FF4FA591B491611109C09FB7F89488811A
:1017E000209582238883EC912E230BC0623061F414
:1017F0009FB7F8943881822F809583238883EC915A
:101800002E2B2C939FBF06C08FB7F894E8812E2B08
:1018100028838FBFDF91CF9108951F93CF93DF93DC
:10182000282F30E0F901E859FF4F8491F901E4587D
:10183000FF4FD491F901E057FF4FC491CC23C9F079
:10184000162F81110E94A80BEC2FF0E0EE0FFF1F66
:10185000EC55FF4FA591B4918FB7F894111105C0C5
:101860009C91ED2FE095E92302C0EC91ED2BEC93D8
:101870008FBFDF91CF911F910895FC0180819181ED
:101880000C94E50DCF93DF93EC018881998100974B
:1018900011F00E94E50D198218821D821C821B82A4
:1018A0001A82DF91CF9108950F931F93CF93DF9307
:1018B000EC018B016F5F7F4F888199810E947D0EC3
:1018C000009731F0998388831B830A8381E001C0EC
:1018D00080E0DF91CF911F910F910895CF93DF9317
:1018E000EC0188819981892B29F08A819B81861757
:1018F000970760F4CE010E94540C882341F08C813C
:101900009D81892B19F4E881F981108281E0DF91B2
:10191000CF910895EF92FF920F931F93CF93DF9390
:10192000EC017B018A01BA010E946E0C811104C096
:10193000CE010E94420C07C01D830C83B701888131
:1019400099810E94610FCE01DF91CF911F910F917C
:10195000FF90EF900895FC01118210821382128291
:10196000158214826115710551F0FB010190002070
:10197000E9F73197AF01461B570B0C948A0C089579
:10198000CF93DF93EC01FB018617970761F060812D
:1019900071816115710529F0448155810E948A0C7D
:1019A00002C00E94420CCE01DF91CF910895FC014C
:1019B00024813581232B31F421E061157105A1F0DB
:1019C000FB0108C0FC01808191816115710531F432
:1019D00021E0FC018081882339F005C00E94580F66
:1019E00021E0892B09F020E0822F0895CF93DF9327
:1019F000FC01C081D181209741F08881882329F0A2
:101A000090E00E94470F8993F8CFDF91CF9108951E
:101A10000895A1E21A2EAA1BBB1BFD010DC0AA1F2F
:101A2000BB1FEE1FFF1FA217B307E407F50720F047
:101A3000A21BB30BE40BF50B661F771F881F991FC2
:101A40001A9469F760957095809590959B01AC010B
:101A5000BD01CF010895052E97FB1EF400940E944E
:101A6000420D57FD07D00E94090D07FC03D04EF42C
:101A70000C94420D50954095309521953F4F4F4F16
:101A80005F4F089590958095709561957F4F8F4F2A
:101A90009F4F0895EE0FFF1F0590F491E02D0994DC
:101AA000CF93DF938230910510F482E090E0E091D3
:101AB000E602F091E70220E030E0C0E0D0E03097AD
:101AC00011F14081518148175907C0F04817590753
:101AD00061F482819381209719F09B838A832BC0C4
:101AE0009093E7028093E60226C02115310519F094
:101AF0004217530718F49A01BE01DF01EF0102807B
:101B0000F381E02DDCCF2115310509F1281B390BBC
:101B10002430310590F412968D919C9113976115A4
:101B2000710521F0FB019383828304C09093E70247
:101B30008093E602FD01329644C0FD01E20FF31FDF
:101B400081939193225031092D933C933AC0209177
:101B5000E4023091E502232B41F4209102013091FF
:101B600003013093E5022093E402209100013091BB
:101B700001012115310541F42DB73EB74091040113
:101B800050910501241B350BE091E402F091E50230
:101B9000E217F307A0F42E1B3F0B2817390778F044
:101BA000AC014E5F5F4F2417350748F04E0F5F1FA3
:101BB0005093E5024093E4028193919302C0E0E0E8
:101BC000F0E0CF01DF91CF9108950F931F93CF9352
:101BD000DF93009709F48CC0FC01329713821282C4
:101BE0000091E6021091E7020115110581F42081B0
:101BF0003181820F931F2091E4023091E502281772
:101C0000390779F5F093E502E093E40271C0D80159
:101C100040E050E0AE17BF0750F412962D913C9172
:101C20001397AD012115310509F1D901F3CF9D01BC
:101C3000DA013383228360817181860F971F8217B7
:101C4000930769F4EC0128813981260F371F2E5F35
:101C50003F4F318320838A819B8193838283452BED
:101C600029F4F093E702E093E60242C01396FC9356
:101C7000EE931297ED01499159919E01240F351F62
:101C8000E217F30771F480819181840F951F02960A
:101C900011969C938E938281938113969C938E933D
:101CA0001297E0E0F0E0D80112968D919C91139785
:101CB000009719F0F8018C01F6CF8D919C91980155
:101CC0002E5F3F4F820F931F2091E4023091E50277
:101CD0002817390769F4309729F41092E702109217
:101CE000E60202C0138212821093E5020093E4021E
:101CF000DF91CF911F910F910895A0E0B0E0E3E84C
:101D0000FEE00C946C0FEC01009721F4CB010E94D3
:101D1000500DB8C0FC01E60FF71F9C01225031099D
:101D2000E217F30708F4ACC0D9010D911C9111978B
:101D300006171707B0F00530110508F49FC0C80159
:101D400004978617970708F499C002501109061BDB
:101D5000170B019311936D937C93CF010E94E50DB6
:101D60008DC05B01A01AB10A4C01800E911EA0919A
:101D7000E602B091E70240E050E0E12CF12C109730
:101D800009F44AC0A815B905D1F56D907C9011975A
:101D9000630182E0C80ED11CCA14DB0480F1A301E8
:101DA0004A195B096A0182E0C80ED11C1296BC90E8
:101DB00012971396AC91B5E0CB16D10440F0B282E5
:101DC000A38351834083D9016D937C930AC00E5F36
:101DD0001F4FC301800F911FF90191838083EB2D69
:101DE000FA2FE114F10431F0D7011396FC93EE932E
:101DF000129744C0F093E702E093E6023FC08D9152
:101E00009C9111974817590708F4AC017D0112966F
:101E10000D90BC91A02DB3CF8091E4029091E5028A
:101E200088159905E1F446175707C8F48091000119
:101E300090910101009741F48DB79EB74091040144
:101E400050910501841B950BE817F907C8F4F0932E
:101E5000E502E093E402F901718360830FC0CB01D6
:101E60000E94500D7C01009759F0A801BE010E940C
:101E70004F0FCE010E94E50DC70104C0CE0102C084
:101E800080E090E0CDB7DEB7EEE00C94880F9111C2
:101E9000089581568A5108F4805285580895FB01AF
:101EA000DC0102C001900D9241505040D8F70895D6
:101EB000FB01DC018D91019080190110D9F3990B80
:101EC0000895FB01DC0101900D920020E1F70895D7
:101ED0002F923F924F925F926F927F928F929F923A
:101EE000AF92BF92CF92DF92EF92FF920F931F9328
:101EF000CF93DF93CDB7DEB7CA1BDB0B0FB6F894D9
:101F0000DEBF0FBECDBF09942A88398848885F8418
:101F10006E847D848C849B84AA84B984C884DF8089
:101F2000EE80FD800C811B81AA81B981CE0FD11D6D
:101F30000FB6F894DEBF0FBECDBFED01089510E0DF
:101F4000CFE5D0E004C0FE010E944A0D2196C036C4
:081F5000D107C9F7F894FFCF97
:101F58000000E80220000F000E0002000300050048
:101F68000400B5040101000800400000010004431A
:101F7800544300703A00513A00673A0000000000EC
:101F880049041904BA03E803BD03C503D9030000D3
:101F9800000051089C09F1072F08C307DD07CF0788
:101FA8000D0A006E616E00696E66006F766600004D
:00000001FF
