S00F000066656E716975322E737265635B
S11300000C945E000C9486000C9486000C9486007C
S11300100C9486000C9486000C9486000C94860044
S11300200C9486000C9486000C9486000C94FF04B7
S11300300C9486000C9486000C9486000C94860024
S11300400C9408080C9486000C9460060C94920698
S11300500C9486000C9486000C9486000C94860004
S11300600C94D6020C9486000000000800020100E3
S1130070000304070000000000000000010204085F
S113008010204080010204081020010204081020FE
S1130090040404040404040402020202020203032A
S11300A00303030300000000250028002B000000C8
S11300B00000240027002A00FA04C20611241FBEEF
S11300C0CFEFD8E0DEBFCDBF11E0A0E0B1E0ECEAB5
S11300D0F3E102C005900D92AE34B107D9F722E0E6
S11300E0AEE4B1E001C01D92A23CB207E1F710E01A
S11300F0CEE5D0E004C02197FE010E94CE09CC35A4
S1130100D107C9F70E94F0060C94D4090C9400009E
S113011065E070E087EC91E00E94EE046BE572E02C
S113012087EC91E00E94F0046CE672E087EC91E0C9
S11301300E94F50461E0809106010E943F0961E09C
S1130140809104010E943F0926E040E855E260E006
S113015070E08CE192E00E94FB0568EE73E080E0C1
S113016090E00C9477080F931F93CF93DF938091C3
S113017002010E94F908EC01809100010E94F90833
S11301808C018091550190915601892B09F0AAC0E8
S113019061E080910A010E947B0960E0809108017E
S11301A00E947B09C53F81E0D8071CF081E0809361
S11301B04E0180914E01811118C060E080910401CC
S11301C00E947B0961E0809106010E947B0980E422
S11301D09FE10E94B30860E0809106010E947B09C0
S11301E080E49FE10E94B30875C0C53F81E0D80751
S11301F00CF470C068EC70E080E090E00E94770836
S1130200033C81E01807B4F160E0809104010E948E
S11302107B091092580110925701809157019091D7
S1130220580183349105E4F461E0809106010E9451
S11302307B0988E893E10E94B30860E0809106019D
S11302400E947B0988E893E10E94B30880915701DA
S11302509091580101969093580180935701DDCFF6
S11302608091510190915201019690935201809393
S1130270510130C0023C81E0180761F161E08091D6
S113028004010E947B091092580110925701809139
S113029057019091580183349105E4F461E0809111
S11302A006010E947B0988E893E10E94B30860E09C
S11302B0809106010E947B0988E893E10E94B308BB
S11302C08091570190915801019690935801809321
S11302D05701DDCF809151019091520190935001CB
S11302E080934F018091550190915601019709F037
S11302F0A4C061E0809108010E947B0960E08091C4
S11303000A010E947B09C53F81E0D8071CF081E007
S113031080934E0180914E01811118C060E080915C
S113032004010E947B0961E0809106010E947B091F
S113033080E49FE10E94B30860E0809106010E947E
S11303407B0980E49FE10E94B3086FC0C53F81E050
S1130350D8070CF46AC0023C81E01807B4F560E0E9
S1130360809104010E947B09109258011092570158
S1130370809157019091580183349105E4F461E030
S1130380809106010E947B0988E893E10E94B308EA
S113039060E0809106010E947B0988E893E10E9455
S11303A0B308809157019091580101969093580198
S11303B080935701DDCF80915301909154010196B0
S11303C0909354018093530130C0023C81E018079C
S11303D061F161E0809104010E947B09109258014F
S11303E010925701809157019091580183349105DF
S11303F0E4F461E0809106010E947B0988E893E1BE
S11304000E94B30860E0809106010E947B0988E89D
S113041093E10E94B308809157019091580101968D
S11304209093580180935701DDCF809153019091AF
S113043054019093500180934F016FE071E08CE17F
S113044092E00E943F074AE050E0B8018CE192E05C
S11304500E94EA0762E171E08CE192E00E943F07AA
S11304604AE050E0BE018CE192E00E94EA0765E1B7
S113047071E08CE192E00E943F0760915501709118
S113048056014AE050E08CE192E00E94EA0768E1FC
S113049071E08CE192E00E943F0760914F017091FE
S11304A050014AE050E08CE192E0DF91CF911F913E
S11304B00F910C94F10787EC91E00E940604181642
S11304C019064CF487EC91E00E940E0490935601B7
S11304D080935501F0CF089560914F0187EC91E02E
S11304E00C9492041092C60181E08093C40110928E
S11304F0C30161E082E10E947B0961E083E10E9423
S11305007B09E9EBF0E080818E7F808380818D7FA1
S1130510808388E48093B80085E48093BC000895C8
S1130520880F8093BA00089540917B01262F30E014
S1130530240F311D21323105DCF42091C601243011
S1130540C9F4FC0180E090E0861758F430917B01F7
S11305502191DC01A358BE4FA30FB11D2C9301962A
S1130560F3CF80917B01680F60937B0180E0089555
S113057081E0089582E008959093C0018093BF01C3
S113058008959093C2018093C101089585ED8093ED
S1130590BC008091BC0084FDFCCF1092C60108957C
S11305A085EC8093BC001092C60108951F920F92AF
S11305B00FB60F9211242F933F934F935F936F9332
S11305C07F938F939F93AF93BF93EF93FF93809108
S11305D0B900887F803609F49EC078F5883209F422
S11305E05DC090F4803109F456C038F4882309F4CE
S11305F0F5C0883009F44FC0F5C0883109F44EC005
S1130600803209F45FC0EEC0803409F46AC058F443
S1130610803309F457C0883309F0E4C0809359014A
S11306200E94D002DFC0803509F44FC0883509F438
S11306305DC0883409F0D6C0D3C0883909F4C4C079
S1130640A8F4883709F467C038F4883609F463C01D
S1130650803709F460C0C6C0883809F4B5C0803951
S113066009F45FC0803809F0BDC05BC0803B09F469
S113067083C038F4803A09F466C0883A09F47CC02F
S1130680B1C0803C09F4A4C0883C09F4A1C0883BF3
S113069009F487C0A7C08091C50110C090919E0144
S11306A080919D01981770F5E0919E0181E08E0F75
S11306B080939E01F0E0E156FE4F80818093BB0061
S11306C085EC83C0809359018BC0E0919E0181E049
S11306D08E0F80939E018091BB00F0E0E156FE4FA7
S11306E0808390919E0180919D016BC0E0919E0159
S11306F081E08E0F80939E018091BB00F0E0E15673
S1130700FE4F80838091C40181116AC081E080938F
S1130710C30184EA5EC083E08093C60110925A014B
S1130720CFCF80915A01803208F04EC0E0915A0137
S113073081E08E0F80935A018091BB00F0E0E55A6E
S1130740FE4F8083BDCF0E94D00280915A01803237
S113075030F4E0915A01F0E0E55AFE4F10826091C6
S11307605A0170E0E091BF01F091C0018BE591E086
S1130770099510925A0136C084E08093C601109204
S11307807C0110927B01E091C101F091C2010995B5
S113079080917B01811105C081E080937B011092DF
S11307A07D01E0917C0181E08E0F80937C01F0E07B
S11307B0E358FE4F80818093BB0090917C0180912F
S11307C07B01981708F47CCF85E88093BC000AC0AD
S11307D085EC8093BC001092C60104C010925901AC
S11307E00E94C602FF91EF91BF91AF919F918F91AB
S11307F07F916F915F914F913F912F910F900FBE19
S11308000F901F90189580E090E008958091FA0170
S113081090E02091FB01821B910908959091FB01C6
S11308208091FA01981750F4E92FF0E0E450FE4F5C
S1130830208130E09F5F9093FB0102C02FEF3FEFD8
S1130840C9010895E091FB018091FA01E81730F4A1
S1130850F0E0E450FE4F808190E008958FEF9FEF29
S113086008950895AC01E091D301F091D40130973B
S1130870E1F09091FB018091FA019817B0F090E0BB
S1130880292F30E02617370754F4DA01A20FB31FDB
S11308908C91D901A450BE4F8C939F5FF1CF1092DD
S11308A0FB016093FA01CB0109940895E091D5010D
S11308B0F091D601309729F01092D9011092D80105
S11308C009940895CF92DF92EF92FF920F931F93B2
S11308D0CF93DF937C01262F972F8A018091D70134
S11308E0882391F0C62FD72F6E01C40ED51ECC15C8
S11308F0DD0571F06991D701ED91FC910190F081D2
S1130900E02DC7010995F3CF642F822F0E94940232
S1130910C801DF91CF911F910F91FF90EF90DF906D
S1130920CF900895CF93DF931F92CDB7DEB769833D
S11309302091D7012223D1F02091D801203240F018
S113094021E030E0FC013383228380E090E015C095
S11309508091D901E82FF0E0E652FE4F998190830F
S11309608F5F8093D9018093D80105C061E0CE01E7
S113097001960E94940281E090E00F90DF91CF9164
S11309800895FC011382128288EE93E0A0E0B0E0A7
S113099084839583A683B7838FE191E091838083D9
S11309A008951092FB011092FA011092D90110924D
S11309B0D8010C947202CF93DF93EC01862F0E942E
S11309C0900286E594E00E94C10282E394E00E94D2
S11309D0BC02CE01DF91CF910C94D1040C94DB04C2
S11309E07093D4016093D30108957093D6016093FA
S11309F0D501089587EC91E00C94C10408951F92E9
S1130A000F920FB60F9211242F933F934F935F933E
S1130A106F937F938F939F93AF93BF93EF93FF93C2
S1130A20E0910C01F0910D010995FF91EF91BF91B7
S1130A30AF919F918F917F916F915F914F913F9172
S1130A402F910F900FBE0F901F901895FC01918D60
S1130A50228D892F90E0805C9F4F821B91098F73B8
S1130A6099270895FC01918D828D981731F0828D1C
S1130A70E80FF11D858D90E008958FEF9FEF0895A5
S1130A80FC01918D828D981761F0828DDF01A80F92
S1130A90B11D5D968C91928D9F5F9F73928F90E0B4
S1130AA008958FEF9FEF0895FC01538D448D252FFA
S1130AB030E0842F90E0821B930B541710F0CF96F4
S1130AC008950197089588EB96E0892B49F080E01A
S1130AD090E0892B29F00E94B80681110C94000043
S1130AE00895FC01848DDF01A80FB11DA35ABF4FE7
S1130AF02C91848D90E001968F739927848FA68919
S1130B00B7892C93A089B1898C9180648C93938D3F
S1130B10848D981306C00288F389E02D80818F7D2F
S1130B2080830895CF93DF93EC01888D8823C9F0E7
S1130B30EA89FB89808185FD05C0A889B9898C91E2
S1130B4086FD0FC00FB607FCF5CF808185FFF2CF7D
S1130B50A889B9898C9185FFEDCFCE010E947105DA
S1130B60E7CFDF91CF910895EF92FF920F931F93F8
S1130B70CF93DF93EC0181E0888F9B8D8C8D98134C
S1130B8005C0E889F989808185FD24C0F62E0B8D86
S1130B9010E00F5F1F4F0F731127E02E8C8DE812AA
S1130BA00CC00FB607FCFACFE889F989808185FF6C
S1130BB0F5CFCE010E947105F1CF8B8DFE01E80FB8
S1130BC0F11DE35AFF4FF0820B8FEA89FB89808184
S1130BD0806207C0EE89FF896083E889F989808192
S1130BE08064808381E090E0DF91CF911F910F9129
S1130BF0FF90EF900895CF92DF92EF92FF921F93B0
S1130C00CF93DF93EC016A017B01122FE889F98904
S1130C1082E080834115514E61057105B1F060E0B9
S1130C2079E08DE390E0A70196010E94AC09DA0116
S1130C30C9010197A109B109B695A795979587951B
S1130C40AC01411580E15807A8F0E889F9891082C0
S1130C5060E874E88EE190E0A70196010E94AC0977
S1130C60BA01A90141505109610971097695679545
S1130C7057954795EC85FD855083EE85FF85408328
S1130C80188EEC89FD891083EA89FB898081806153
S1130C908083EA89FB89808188608083EA89FB8973
S1130CA0808180688083EA89FB8980818F7D80834D
S1130CB0DF91CF911F91FF90EF90DF90CF90089537
S1130CC01F920F920FB60F9211242F938F939F931D
S1130CD0EF93FF93E0912C02F0912D028081E0913B
S1130CE03202F091330282FD12C09081809135026C
S1130CF08F5F8F7320913602821751F0E091350295
S1130D00F0E0E45EFD4F958F8093350201C0808151
S1130D10FF91EF919F918F912F910F900FBE0F90A4
S1130D201F9018951F920F920FB60F9211242F93B4
S1130D303F934F935F936F937F938F939F93AF935F
S1130D40BF93EF93FF938CE192E00E947105FF91B2
S1130D50EF91BF91AF919F918F917F916F915F912F
S1130D604F913F912F910F900FBE0F901F901895A8
S1130D708CE192E00E94260521E0892B09F420E011
S1130D80822F0895ECE1F2E01382128288EE93E060
S1130D90A0E0B0E084839583A683B78381E391E0E8
S1130DA09183808385EC90E09587848784EC90E040
S1130DB09787868780EC90E0918B808B81EC90E024
S1130DC0938B828B82EC90E0958B848B86EC90E005
S1130DD0978B868B118E128E138E148E0895089520
S1130DE00E94BE080E94EF060E948800C3E6D5E078
S1130DF00E94B3002097E1F30E946305F9CFCF92DC
S1130E00DF92EF92FF920F931F93CF93DF936C01C6
S1130E107A018B01C0E0D0E0CE15DF0589F0D8015E
S1130E206D918D01D601ED91FC910190F081E02D41
S1130E30C6010995892B11F47E0102C02196ECCFDD
S1130E40C701DF91CF911F910F91FF90EF90DF9039
S1130E50CF9008956115710579F0FB010190002090
S1130E60E9F73197AF01461B570BDC01ED91FC917B
S1130E700280F381E02D099480E090E008950C94C1
S1130E802A07DC01ED91FC910190F081E02D099499
S1130E906FE371E00C942A078F929F92AF92BF92F6
S1130EA0CF92DF92EF92FF920F931F93CF93DF9332
S1130EB0CDB7DEB7A1970FB6F894DEBF0FBECDBF96
S1130EC07C01D42EC52EDB0119A2223008F42AE0BD
S1130ED08E010F5D1F4F822E912CA12CB12C6D2DF4
S1130EE07C2DCD01A50194010E94AC09D22EC32E04
S1130EF0DA01015011096A3071058105910510F478
S1130F00605D01C0695CF8016083232B242B252BD1
S1130F1031F7B801C7010E942A07A1960FB6F894C9
S1130F20DEBF0FBECDBFDF91CF911F910F91FF9018
S1130F30EF90DF90CF90BF90AF909F908F900895E7
S1130F40CF92DF92EF92FF920F931F93CF93DF9391
S1130F50EC016A017B012115310579F4E881F981FD
S1130F600190F081E02D642FDF91CF911F910F91BB
S1130F70FF90EF90DF90CF9009942A303105E9F487
S1130F8077FF1AC06DE20E9441078C014427552760
S1130F90BA014C195D096E097F092AE0CE010E944D
S1130FA04C07800F911FDF91CF911F910F91FF90FC
S1130FB0EF90DF90CF9008952AE0B701A601CE010B
S1130FC0DF91CF911F910F91FF90EF90DF90CF9021
S1130FD00C944C079A01AB01770F660B770B0C94BA
S1130FE0A0070F931F93CF93DF93EC019A01AB01FA
S1130FF0770F660B770B0E94A0078C01CE010E942D
S11310004807800F911FDF91CF911F910F91089591
S11310101F920F920FB60F9211242F933F938F9329
S11310209F93AF93BF938091BA029091BB02A0911A
S1131030BC02B091BD023091B90223E0230F2D37D9
S113104020F40196A11DB11D05C026E8230F0296C8
S1131050A11DB11D2093B9028093BA029093BB02E3
S1131060A093BC02B093BD028091BE029091BF02D6
S1131070A091C002B091C1020196A11DB11D80933F
S1131080BE029093BF02A093C002B093C102BF916D
S1131090AF919F918F913F912F910F900FBE0F9021
S11310A01F9018953FB7F8948091BE029091BF02AB
S11310B0A091C002B091C10226B5A89B05C02F3FE4
S11310C019F00196A11DB11D3FBFBA2FA92F982F6A
S11310D08827820F911DA11DB11DBC01CD0142E0E5
S11310E0660F771F881F991F4A95D1F708958F922D
S11310F09F92AF92BF92CF92DF92EF92FF926B01D9
S11311007C010E9452084B015C01C114D104E1042A
S1131110F10401F10E94AB090E945208DC01CB01E9
S113112088199909AA09BB09883E9340A105B1050C
S113113060F321E0C21AD108E108F10888EE880EB4
S113114083E0981EA11CB11CC114D104E104F10474
S113115019F7DBCFFF90EF90DF90CF90BF90AF9067
S11311609F908F9008958230910538F0880F991FD1
S1131170880F991F05970197F1F70895789484B51E
S1131180826084BD84B5816084BD85B5826085BD7F
S113119085B5816085BDEEE6F0E080818160808365
S11311A0E1E8F0E010828081826080838081816048
S11311B08083E0E8F0E0808181608083E1EBF0E00F
S11311C0808184608083E0EBF0E0808181608083B3
S11311D0EAE7F0E08081846080838081826080839C
S11311E08081816080838081806880831092C100C7
S11311F008958E3008F08E50877020910E0190E48F
S1131200299F90011124822B80937C0080917A0085
S1131210806480937A0080917A0086FDFCCF80916F
S113122078002091790090E0922B0895833081F02A
S113123028F4813099F08230A1F008958730A9F024
S11312408830B9F08430D1F4809180008F7D03C060
S1131250809180008F7780938000089584B58F7784
S113126002C084B58F7D84BD08958091B0008F77CE
S113127003C08091B0008F7D8093B0000895CF9318
S1131280DF9390E0FC01E458FF4F2491FC01E05708
S1131290FF4F8491882361F190E0880F991FFC012E
S11312A0E255FF4FC591D491FC01EC55FF4FA59138
S11312B0B491611109C09FB7F89488812095822365
S11312C08883EC912E230BC0623061F49FB7F894AD
S11312D03881822F809583238883EC912E2B2C9345
S11312E09FBF06C08FB7F894E8812E2B28838FBF49
S11312F0DF91CF9108951F93CF93DF93282F30E090
S1131300F901E859FF4F8491F901E458FF4FD49152
S1131310F901E057FF4FC491CC23C9F0162F811176
S11313200E941609EC2FF0E0EE0FFF1FEC55FF4F63
S1131330A591B4918FB7F894111105C09C91ED2F2C
S1131340E095E92302C0EC91ED2BEC938FBFDF9184
S1131350CF911F9108950895A1E21A2EAA1BBB1BD9
S1131360FD010DC0AA1FBB1FEE1FFF1FA217B3076D
S1131370E407F50720F0A21BB30BE40BF50B661F83
S1131380771F881F991F1A9469F760957095809547
S113139090959B01AC01BD01CF010895EE0FFF1F95
S10F13A00590F491E02D0994F894FFCF1F
S11313AC0F000E000200030005000400FE0401718E
S11313BC3A00703A00513A00673A0000000000927B
S11313CC0462040304310406040E04220400000025
S11313DC00B405FF06540592052605400532050D9B
S11113EC0A006E616E00696E66006F76660020
S9030000FC
